{
  "contractName": "Almacenamiento",
  "abi": [
    {
      "inputs": [],
      "stateMutability": "payable",
      "type": "constructor"
    },
    {
      "anonymous": false,
      "inputs": [
        {
          "indexed": false,
          "internalType": "address",
          "name": "",
          "type": "address"
        },
        {
          "indexed": false,
          "internalType": "uint256",
          "name": "",
          "type": "uint256"
        }
      ],
      "name": "Received",
      "type": "event"
    },
    {
      "inputs": [
        {
          "internalType": "address",
          "name": "",
          "type": "address"
        },
        {
          "internalType": "uint256",
          "name": "",
          "type": "uint256"
        }
      ],
      "name": "notas",
      "outputs": [
        {
          "internalType": "string",
          "name": "detalle",
          "type": "string"
        }
      ],
      "stateMutability": "view",
      "type": "function"
    },
    {
      "stateMutability": "payable",
      "type": "receive"
    },
    {
      "inputs": [
        {
          "internalType": "string",
          "name": "_nota",
          "type": "string"
        },
        {
          "internalType": "address",
          "name": "_owner",
          "type": "address"
        }
      ],
      "name": "escribirNota",
      "outputs": [],
      "stateMutability": "payable",
      "type": "function"
    },
    {
      "inputs": [],
      "name": "transferirFondos",
      "outputs": [],
      "stateMutability": "payable",
      "type": "function"
    },
    {
      "inputs": [
        {
          "internalType": "address",
          "name": "_owner",
          "type": "address"
        }
      ],
      "name": "leerNotas",
      "outputs": [
        {
          "components": [
            {
              "internalType": "string",
              "name": "detalle",
              "type": "string"
            }
          ],
          "internalType": "struct Almacenamiento.Nota[]",
          "name": "",
          "type": "tuple[]"
        }
      ],
      "stateMutability": "view",
      "type": "function"
    },
    {
      "inputs": [
        {
          "internalType": "address",
          "name": "_owner",
          "type": "address"
        }
      ],
      "name": "totalNotas",
      "outputs": [
        {
          "internalType": "uint256",
          "name": "",
          "type": "uint256"
        }
      ],
      "stateMutability": "view",
      "type": "function"
    },
    {
      "inputs": [],
      "name": "totalMonto",
      "outputs": [
        {
          "internalType": "uint256",
          "name": "",
          "type": "uint256"
        }
      ],
      "stateMutability": "view",
      "type": "function"
    }
  ],
  "bytecode": "0x608060405233600160006101000a81548173ffffffffffffffffffffffffffffffffffffffff021916908373ffffffffffffffffffffffffffffffffffffffff16021790555030600260006101000a81548173ffffffffffffffffffffffffffffffffffffffff021916908373ffffffffffffffffffffffffffffffffffffffff160217905550610d99806100956000396000f3fe6080604052600436106100595760003560e01c80630e3fee491461009e5780633676bedf146100c9578063825f24c1146101065780638c6cedbf146101105780638e2e096e1461014d5780639fcff4e31461016957610099565b36610099577f88a5966d370b9919b20f3e2c13ff65706f196a4e32cc2c12bf57088f88525874333460405161008f929190610ae9565b60405180910390a1005b600080fd5b3480156100aa57600080fd5b506100b36101a6565b6040516100c09190610b96565b60405180910390f35b3480156100d557600080fd5b506100f060048036038101906100eb919061086d565b6101e7565b6040516100fd9190610b12565b60405180910390f35b61010e610322565b005b34801561011c57600080fd5b5061013760048036038101906101329190610896565b6104ea565b6040516101449190610b34565b60405180910390f35b610167600480360381019061016291906108d2565b6105b6565b005b34801561017557600080fd5b50610190600480360381019061018b919061086d565b6106ff565b60405161019d9190610b96565b60405180910390f35b6000600260009054906101000a900473ffffffffffffffffffffffffffffffffffffffff1673ffffffffffffffffffffffffffffffffffffffff1631905090565b60606000808373ffffffffffffffffffffffffffffffffffffffff1673ffffffffffffffffffffffffffffffffffffffff168152602001908152602001600020805480602002602001604051908101604052809291908181526020016000905b8282101561031757838290600052602060002001604051806020016040529081600082018054600181600116156101000203166002900480601f0160208091040260200160405190810160405280929190818152602001828054600181600116156101000203166002900480156102ff5780601f106102d4576101008083540402835291602001916102ff565b820191906000526020600020905b8154815290600101906020018083116102e257829003601f168201915b50505050508152505081526020019060010190610247565b505050509050919050565b600160009054906101000a900473ffffffffffffffffffffffffffffffffffffffff1673ffffffffffffffffffffffffffffffffffffffff163373ffffffffffffffffffffffffffffffffffffffff16146103b2576040517f08c379a00000000000000000000000000000000000000000000000000000000081526004016103a990610b76565b60405180910390fd5b600160009054906101000a900473ffffffffffffffffffffffffffffffffffffffff1673ffffffffffffffffffffffffffffffffffffffff166108fc600260009054906101000a900473ffffffffffffffffffffffffffffffffffffffff1673ffffffffffffffffffffffffffffffffffffffff16319081150290604051600060405180830381858888f19350505050158015610453573d6000803e3d6000fd5b507f88a5966d370b9919b20f3e2c13ff65706f196a4e32cc2c12bf57088f88525874600160009054906101000a900473ffffffffffffffffffffffffffffffffffffffff16600260009054906101000a900473ffffffffffffffffffffffffffffffffffffffff1673ffffffffffffffffffffffffffffffffffffffff16316040516104e0929190610ae9565b60405180910390a1565b6000602052816000526040600020818154811061050357fe5b9060005260206000200160009150915050806000018054600181600116156101000203166002900480601f0160208091040260200160405190810160405280929190818152602001828054600181600116156101000203166002900480156105ac5780601f10610581576101008083540402835291602001916105ac565b820191906000526020600020905b81548152906001019060200180831161058f57829003601f168201915b5050505050905081565b6703782dace9d90000341015610601576040517f08c379a00000000000000000000000000000000000000000000000000000000081526004016105f890610b56565b60405180910390fd5b600260009054906101000a900473ffffffffffffffffffffffffffffffffffffffff1673ffffffffffffffffffffffffffffffffffffffff166108fc349081150290604051600060405180830381858888f19350505050158015610669573d6000803e3d6000fd5b506000808273ffffffffffffffffffffffffffffffffffffffff1673ffffffffffffffffffffffffffffffffffffffff1681526020019081526020016000206040518060200160405280848152509080600181540180825580915050600190039060005260206000200160009091909190915060008201518160000190805190602001906106f892919061074a565b5050505050565b60008060008373ffffffffffffffffffffffffffffffffffffffff1673ffffffffffffffffffffffffffffffffffffffff168152602001908152602001600020805490509050919050565b828054600181600116156101000203166002900490600052602060002090601f016020900481019282601f1061078b57805160ff19168380011785556107b9565b828001600101855582156107b9579182015b828111156107b857825182559160200191906001019061079d565b5b5090506107c691906107ca565b5090565b6107ec91905b808211156107e85760008160009055506001016107d0565b5090565b90565b6000813590506107fe81610d35565b92915050565b600082601f83011261081557600080fd5b813561082861082382610bde565b610bb1565b9150808252602083016020830185838301111561084457600080fd5b61084f838284610ce2565b50505092915050565b60008135905061086781610d4c565b92915050565b60006020828403121561087f57600080fd5b600061088d848285016107ef565b91505092915050565b600080604083850312156108a957600080fd5b60006108b7858286016107ef565b92505060206108c885828601610858565b9150509250929050565b600080604083850312156108e557600080fd5b600083013567ffffffffffffffff8111156108ff57600080fd5b61090b85828601610804565b925050602061091c858286016107ef565b9150509250929050565b60006109328383610ab0565b905092915050565b61094381610cac565b82525050565b600061095482610c1a565b61095e8185610c3d565b93508360208202850161097085610c0a565b8060005b858110156109ac578484038952815161098d8582610926565b945061099883610c30565b925060208a01995050600181019050610974565b50829750879550505050505092915050565b60006109c982610c25565b6109d38185610c4e565b93506109e3818560208601610cf1565b6109ec81610d24565b840191505092915050565b6000610a0282610c25565b610a0c8185610c5f565b9350610a1c818560208601610cf1565b610a2581610d24565b840191505092915050565b6000610a3d601483610c5f565b91507f4e6f20616c63616e7a613a20302e3235204554480000000000000000000000006000830152602082019050919050565b6000610a7d601183610c5f565b91507f4e6f206572657320656c206a6566617a6f0000000000000000000000000000006000830152602082019050919050565b60006020830160008301518482036000860152610acd82826109be565b9150508091505092915050565b610ae381610ca2565b82525050565b6000604082019050610afe600083018561093a565b610b0b6020830184610ada565b9392505050565b60006020820190508181036000830152610b2c8184610949565b905092915050565b60006020820190508181036000830152610b4e81846109f7565b905092915050565b60006020820190508181036000830152610b6f81610a30565b9050919050565b60006020820190508181036000830152610b8f81610a70565b9050919050565b6000602082019050610bab6000830184610ada565b92915050565b6000604051905081810181811067ffffffffffffffff82111715610bd457600080fd5b8060405250919050565b600067ffffffffffffffff821115610bf557600080fd5b601f19601f8301169050602081019050919050565b6000819050602082019050919050565b600081519050919050565b600081519050919050565b6000602082019050919050565b600082825260208201905092915050565b600082825260208201905092915050565b600082825260208201905092915050565b6000610c7b82610c82565b9050919050565b600073ffffffffffffffffffffffffffffffffffffffff82169050919050565b6000819050919050565b6000610cb782610cbe565b9050919050565b6000610cc982610cd0565b9050919050565b6000610cdb82610c82565b9050919050565b82818337600083830152505050565b60005b83811015610d0f578082015181840152602081019050610cf4565b83811115610d1e576000848401525b50505050565b6000601f19601f8301169050919050565b610d3e81610c70565b8114610d4957600080fd5b50565b610d5581610ca2565b8114610d6057600080fd5b5056fea26469706673582212206aacc7c2b9eacbf4956b42cf8ba8735b2faad6b31da42fcf96401bef568194f064736f6c63430006080033",
  "immutableReferences": {},
  "source": "// SPDX-License-Identifier: GPL-3.0\npragma solidity >=0.6.0 <0.7.0;\npragma experimental ABIEncoderV2;\n\ncontract Almacenamiento {\n\n    struct Nota {\n        string detalle;\n    }\n\n    mapping(address => Nota[]) public notas;\n\n    address payable jefazo;\n    address payable contrato;\n\n    constructor() public payable {\n        jefazo = payable(msg.sender);\n        contrato = payable(address(this));\n    }\n\n    event Received(address, uint);\n\n    modifier isOwner() {\n        require(msg.sender == jefazo, \"No eres el jefazo\");\n        _;\n    }\n\n    modifier isEnough() {\n        require(msg.value >= 0.25 ether, \"No alcanza: 0.25 ETH\");\n        _;\n    }\n    \n    function escribirNota(string memory _nota, address _owner) public payable isEnough {\n        contrato.transfer(msg.value);\n        notas[_owner].push(Nota({detalle: _nota}));\n    }\n\n    function transferirFondos() public payable isOwner {\n        jefazo.transfer(contrato.balance);\n        emit Received(jefazo, contrato.balance);\n    }\n\n    function leerNotas(address _owner) public view returns (Nota[] memory){\n        return notas[_owner];\n    }\n\n    function totalNotas(address _owner) public view returns(uint) {\n        return notas[_owner].length;\n    }\n\n    function totalMonto() public view returns(uint) {\n        return contrato.balance;\n    }\n\n    receive() external payable {\n        emit Received(msg.sender, msg.value);\n    }\n\n}",
  "sourcePath": "/home/carlos/desarrollo/sc1-ethereum-rinkeby/contracts/Almacenamiento.sol",
  "compiler": {
    "name": "solc",
    "version": "0.6.8+commit.0bbfe453.Emscripten.clang"
  },
  "schemaVersion": "3.2.0",
  "updatedAt": "2020-06-17T03:07:57.532Z",
  "devdoc": {
    "methods": {}
  },
  "userdoc": {
    "methods": {}
  }
}